{
  "_format": "hh-sol-artifact-1",
  "contractName": "SOUL",
  "sourceName": "contracts/nfts/SOUL.sol",
  "abi": [
    {
      "anonymous": false,
      "inputs": [
        {
          "indexed": true,
          "internalType": "address",
          "name": "owner",
          "type": "address"
        },
        {
          "indexed": true,
          "internalType": "address",
          "name": "approved",
          "type": "address"
        },
        {
          "indexed": true,
          "internalType": "uint256",
          "name": "tokenId",
          "type": "uint256"
        }
      ],
      "name": "Approval",
      "type": "event"
    },
    {
      "anonymous": false,
      "inputs": [
        {
          "indexed": true,
          "internalType": "address",
          "name": "owner",
          "type": "address"
        },
        {
          "indexed": true,
          "internalType": "address",
          "name": "operator",
          "type": "address"
        },
        {
          "indexed": false,
          "internalType": "bool",
          "name": "approved",
          "type": "bool"
        }
      ],
      "name": "ApprovalForAll",
      "type": "event"
    },
    {
      "anonymous": false,
      "inputs": [
        {
          "indexed": true,
          "internalType": "uint256",
          "name": "tokenId",
          "type": "uint256"
        },
        {
          "indexed": false,
          "internalType": "address",
          "name": "sender",
          "type": "address"
        },
        {
          "indexed": false,
          "internalType": "uint256",
          "name": "value",
          "type": "uint256"
        },
        {
          "indexed": false,
          "internalType": "bool",
          "name": "extended",
          "type": "bool"
        },
        {
          "components": [
            {
              "internalType": "uint256",
              "name": "tokenId",
              "type": "uint256"
            },
            {
              "internalType": "address",
              "name": "erc20Token",
              "type": "address"
            },
            {
              "internalType": "uint256",
              "name": "amount",
              "type": "uint256"
            },
            {
              "internalType": "uint256",
              "name": "startTime",
              "type": "uint256"
            },
            {
              "internalType": "uint256",
              "name": "endTime",
              "type": "uint256"
            },
            {
              "internalType": "address payable",
              "name": "bidder",
              "type": "address"
            },
            {
              "internalType": "bool",
              "name": "settled",
              "type": "bool"
            },
            {
              "internalType": "uint256",
              "name": "timeBuffer",
              "type": "uint256"
            },
            {
              "internalType": "uint256",
              "name": "reservePrice",
              "type": "uint256"
            },
            {
              "internalType": "uint256",
              "name": "minBidIncrementPercentage",
              "type": "uint256"
            },
            {
              "internalType": "bytes32",
              "name": "auctionId",
              "type": "bytes32"
            }
          ],
          "indexed": false,
          "internalType": "struct AuctionHouse.Auction",
          "name": "auction",
          "type": "tuple"
        }
      ],
      "name": "AuctionBid",
      "type": "event"
    },
    {
      "anonymous": false,
      "inputs": [
        {
          "indexed": true,
          "internalType": "uint256",
          "name": "tokenId",
          "type": "uint256"
        },
        {
          "indexed": false,
          "internalType": "address",
          "name": "sender",
          "type": "address"
        },
        {
          "indexed": false,
          "internalType": "uint256",
          "name": "value",
          "type": "uint256"
        },
        {
          "indexed": false,
          "internalType": "bytes32",
          "name": "auctionId",
          "type": "bytes32"
        }
      ],
      "name": "AuctionClaimBid",
      "type": "event"
    },
    {
      "anonymous": false,
      "inputs": [
        {
          "indexed": true,
          "internalType": "uint256",
          "name": "tokenId",
          "type": "uint256"
        }
      ],
      "name": "AuctionClosed",
      "type": "event"
    },
    {
      "anonymous": false,
      "inputs": [
        {
          "indexed": true,
          "internalType": "uint256",
          "name": "tokenId",
          "type": "uint256"
        },
        {
          "indexed": false,
          "internalType": "uint256",
          "name": "startTime",
          "type": "uint256"
        },
        {
          "indexed": false,
          "internalType": "uint256",
          "name": "endTime",
          "type": "uint256"
        },
        {
          "indexed": false,
          "internalType": "address",
          "name": "sender",
          "type": "address"
        },
        {
          "indexed": false,
          "internalType": "bytes32",
          "name": "auctionId",
          "type": "bytes32"
        },
        {
          "components": [
            {
              "internalType": "uint256",
              "name": "tokenId",
              "type": "uint256"
            },
            {
              "internalType": "address",
              "name": "erc20Token",
              "type": "address"
            },
            {
              "internalType": "uint256",
              "name": "amount",
              "type": "uint256"
            },
            {
              "internalType": "uint256",
              "name": "startTime",
              "type": "uint256"
            },
            {
              "internalType": "uint256",
              "name": "endTime",
              "type": "uint256"
            },
            {
              "internalType": "address payable",
              "name": "bidder",
              "type": "address"
            },
            {
              "internalType": "bool",
              "name": "settled",
              "type": "bool"
            },
            {
              "internalType": "uint256",
              "name": "timeBuffer",
              "type": "uint256"
            },
            {
              "internalType": "uint256",
              "name": "reservePrice",
              "type": "uint256"
            },
            {
              "internalType": "uint256",
              "name": "minBidIncrementPercentage",
              "type": "uint256"
            },
            {
              "internalType": "bytes32",
              "name": "auctionId",
              "type": "bytes32"
            }
          ],
          "indexed": false,
          "internalType": "struct AuctionHouse.Auction",
          "name": "auction",
          "type": "tuple"
        }
      ],
      "name": "AuctionCreated",
      "type": "event"
    },
    {
      "anonymous": false,
      "inputs": [
        {
          "indexed": true,
          "internalType": "uint256",
          "name": "tokenId",
          "type": "uint256"
        },
        {
          "indexed": false,
          "internalType": "uint256",
          "name": "endTime",
          "type": "uint256"
        },
        {
          "components": [
            {
              "internalType": "uint256",
              "name": "tokenId",
              "type": "uint256"
            },
            {
              "internalType": "address",
              "name": "erc20Token",
              "type": "address"
            },
            {
              "internalType": "uint256",
              "name": "amount",
              "type": "uint256"
            },
            {
              "internalType": "uint256",
              "name": "startTime",
              "type": "uint256"
            },
            {
              "internalType": "uint256",
              "name": "endTime",
              "type": "uint256"
            },
            {
              "internalType": "address payable",
              "name": "bidder",
              "type": "address"
            },
            {
              "internalType": "bool",
              "name": "settled",
              "type": "bool"
            },
            {
              "internalType": "uint256",
              "name": "timeBuffer",
              "type": "uint256"
            },
            {
              "internalType": "uint256",
              "name": "reservePrice",
              "type": "uint256"
            },
            {
              "internalType": "uint256",
              "name": "minBidIncrementPercentage",
              "type": "uint256"
            },
            {
              "internalType": "bytes32",
              "name": "auctionId",
              "type": "bytes32"
            }
          ],
          "indexed": false,
          "internalType": "struct AuctionHouse.Auction",
          "name": "auction",
          "type": "tuple"
        }
      ],
      "name": "AuctionExtended",
      "type": "event"
    },
    {
      "anonymous": false,
      "inputs": [
        {
          "indexed": false,
          "internalType": "uint256",
          "name": "minBidIncrementPercentage",
          "type": "uint256"
        }
      ],
      "name": "AuctionMinBidIncrementPercentageUpdated",
      "type": "event"
    },
    {
      "anonymous": false,
      "inputs": [
        {
          "indexed": false,
          "internalType": "uint256",
          "name": "reservePrice",
          "type": "uint256"
        }
      ],
      "name": "AuctionReservePriceUpdated",
      "type": "event"
    },
    {
      "anonymous": false,
      "inputs": [
        {
          "indexed": true,
          "internalType": "uint256",
          "name": "tokenId",
          "type": "uint256"
        },
        {
          "indexed": false,
          "internalType": "address",
          "name": "winner",
          "type": "address"
        },
        {
          "indexed": false,
          "internalType": "uint256",
          "name": "amount",
          "type": "uint256"
        },
        {
          "components": [
            {
              "internalType": "uint256",
              "name": "tokenId",
              "type": "uint256"
            },
            {
              "internalType": "address",
              "name": "erc20Token",
              "type": "address"
            },
            {
              "internalType": "uint256",
              "name": "amount",
              "type": "uint256"
            },
            {
              "internalType": "uint256",
              "name": "startTime",
              "type": "uint256"
            },
            {
              "internalType": "uint256",
              "name": "endTime",
              "type": "uint256"
            },
            {
              "internalType": "address payable",
              "name": "bidder",
              "type": "address"
            },
            {
              "internalType": "bool",
              "name": "settled",
              "type": "bool"
            },
            {
              "internalType": "uint256",
              "name": "timeBuffer",
              "type": "uint256"
            },
            {
              "internalType": "uint256",
              "name": "reservePrice",
              "type": "uint256"
            },
            {
              "internalType": "uint256",
              "name": "minBidIncrementPercentage",
              "type": "uint256"
            },
            {
              "internalType": "bytes32",
              "name": "auctionId",
              "type": "bytes32"
            }
          ],
          "indexed": false,
          "internalType": "struct AuctionHouse.Auction",
          "name": "auction",
          "type": "tuple"
        }
      ],
      "name": "AuctionSettled",
      "type": "event"
    },
    {
      "anonymous": false,
      "inputs": [
        {
          "indexed": false,
          "internalType": "uint256",
          "name": "timeBuffer",
          "type": "uint256"
        }
      ],
      "name": "AuctionTimeBufferUpdated",
      "type": "event"
    },
    {
      "anonymous": false,
      "inputs": [
        {
          "indexed": true,
          "internalType": "address",
          "name": "reserver",
          "type": "address"
        },
        {
          "indexed": true,
          "internalType": "uint256",
          "name": "tokenId",
          "type": "uint256"
        },
        {
          "indexed": true,
          "internalType": "address",
          "name": "owner",
          "type": "address"
        },
        {
          "indexed": false,
          "internalType": "uint256",
          "name": "blockNumber",
          "type": "uint256"
        }
      ],
      "name": "Claim",
      "type": "event"
    },
    {
      "anonymous": false,
      "inputs": [
        {
          "indexed": false,
          "internalType": "uint8",
          "name": "version",
          "type": "uint8"
        }
      ],
      "name": "Initialized",
      "type": "event"
    },
    {
      "anonymous": false,
      "inputs": [
        {
          "indexed": true,
          "internalType": "address",
          "name": "previousOwner",
          "type": "address"
        },
        {
          "indexed": true,
          "internalType": "address",
          "name": "newOwner",
          "type": "address"
        }
      ],
      "name": "OwnershipTransferred",
      "type": "event"
    },
    {
      "anonymous": false,
      "inputs": [
        {
          "indexed": false,
          "internalType": "address",
          "name": "account",
          "type": "address"
        }
      ],
      "name": "Paused",
      "type": "event"
    },
    {
      "anonymous": false,
      "inputs": [
        {
          "indexed": true,
          "internalType": "address",
          "name": "reserver",
          "type": "address"
        },
        {
          "indexed": true,
          "internalType": "uint256",
          "name": "tokenId",
          "type": "uint256"
        },
        {
          "indexed": true,
          "internalType": "address",
          "name": "owner",
          "type": "address"
        },
        {
          "indexed": false,
          "internalType": "uint256",
          "name": "blockNumber",
          "type": "uint256"
        }
      ],
      "name": "Reserve",
      "type": "event"
    },
    {
      "anonymous": false,
      "inputs": [
        {
          "indexed": true,
          "internalType": "address",
          "name": "from",
          "type": "address"
        },
        {
          "indexed": true,
          "internalType": "address",
          "name": "to",
          "type": "address"
        },
        {
          "indexed": true,
          "internalType": "uint256",
          "name": "tokenId",
          "type": "uint256"
        }
      ],
      "name": "Transfer",
      "type": "event"
    },
    {
      "anonymous": false,
      "inputs": [
        {
          "indexed": false,
          "internalType": "address",
          "name": "account",
          "type": "address"
        }
      ],
      "name": "Unpaused",
      "type": "event"
    },
    {
      "inputs": [],
      "name": "_admin",
      "outputs": [
        {
          "internalType": "address",
          "name": "",
          "type": "address"
        }
      ],
      "stateMutability": "view",
      "type": "function"
    },
    {
      "inputs": [
        {
          "internalType": "uint256",
          "name": "",
          "type": "uint256"
        }
      ],
      "name": "_auctions",
      "outputs": [
        {
          "internalType": "uint256",
          "name": "tokenId",
          "type": "uint256"
        },
        {
          "internalType": "address",
          "name": "erc20Token",
          "type": "address"
        },
        {
          "internalType": "uint256",
          "name": "amount",
          "type": "uint256"
        },
        {
          "internalType": "uint256",
          "name": "startTime",
          "type": "uint256"
        },
        {
          "internalType": "uint256",
          "name": "endTime",
          "type": "uint256"
        },
        {
          "internalType": "address payable",
          "name": "bidder",
          "type": "address"
        },
        {
          "internalType": "bool",
          "name": "settled",
          "type": "bool"
        },
        {
          "internalType": "uint256",
          "name": "timeBuffer",
          "type": "uint256"
        },
        {
          "internalType": "uint256",
          "name": "reservePrice",
          "type": "uint256"
        },
        {
          "internalType": "uint256",
          "name": "minBidIncrementPercentage",
          "type": "uint256"
        },
        {
          "internalType": "bytes32",
          "name": "auctionId",
          "type": "bytes32"
        }
      ],
      "stateMutability": "view",
      "type": "function"
    },
    {
      "inputs": [
        {
          "internalType": "bytes32",
          "name": "",
          "type": "bytes32"
        }
      ],
      "name": "_auctionsList",
      "outputs": [
        {
          "internalType": "uint256",
          "name": "tokenId",
          "type": "uint256"
        },
        {
          "internalType": "address",
          "name": "erc20Token",
          "type": "address"
        },
        {
          "internalType": "uint256",
          "name": "amount",
          "type": "uint256"
        },
        {
          "internalType": "uint256",
          "name": "startTime",
          "type": "uint256"
        },
        {
          "internalType": "uint256",
          "name": "endTime",
          "type": "uint256"
        },
        {
          "internalType": "address payable",
          "name": "bidder",
          "type": "address"
        },
        {
          "internalType": "bool",
          "name": "settled",
          "type": "bool"
        },
        {
          "internalType": "uint256",
          "name": "timeBuffer",
          "type": "uint256"
        },
        {
          "internalType": "uint256",
          "name": "reservePrice",
          "type": "uint256"
        },
        {
          "internalType": "uint256",
          "name": "minBidIncrementPercentage",
          "type": "uint256"
        },
        {
          "internalType": "bytes32",
          "name": "auctionId",
          "type": "bytes32"
        }
      ],
      "stateMutability": "view",
      "type": "function"
    },
    {
      "inputs": [],
      "name": "_bfs",
      "outputs": [
        {
          "internalType": "address",
          "name": "",
          "type": "address"
        }
      ],
      "stateMutability": "view",
      "type": "function"
    },
    {
      "inputs": [
        {
          "internalType": "uint256",
          "name": "",
          "type": "uint256"
        },
        {
          "internalType": "bytes32",
          "name": "",
          "type": "bytes32"
        },
        {
          "internalType": "address",
          "name": "",
          "type": "address"
        }
      ],
      "name": "_bidderAuctions",
      "outputs": [
        {
          "internalType": "uint256",
          "name": "",
          "type": "uint256"
        }
      ],
      "stateMutability": "view",
      "type": "function"
    },
    {
      "inputs": [
        {
          "internalType": "address",
          "name": "",
          "type": "address"
        },
        {
          "internalType": "address",
          "name": "",
          "type": "address"
        }
      ],
      "name": "_biddingBalance",
      "outputs": [
        {
          "internalType": "uint256",
          "name": "",
          "type": "uint256"
        }
      ],
      "stateMutability": "view",
      "type": "function"
    },
    {
      "inputs": [
        {
          "internalType": "address",
          "name": "",
          "type": "address"
        }
      ],
      "name": "_coreTeamTreasury",
      "outputs": [
        {
          "internalType": "uint256",
          "name": "",
          "type": "uint256"
        }
      ],
      "stateMutability": "view",
      "type": "function"
    },
    {
      "inputs": [],
      "name": "_gmToken",
      "outputs": [
        {
          "internalType": "address",
          "name": "",
          "type": "address"
        }
      ],
      "stateMutability": "view",
      "type": "function"
    },
    {
      "inputs": [],
      "name": "_maxSupply",
      "outputs": [
        {
          "internalType": "uint256",
          "name": "",
          "type": "uint256"
        }
      ],
      "stateMutability": "view",
      "type": "function"
    },
    {
      "inputs": [
        {
          "internalType": "uint256",
          "name": "",
          "type": "uint256"
        }
      ],
      "name": "_mintAt",
      "outputs": [
        {
          "internalType": "uint256",
          "name": "",
          "type": "uint256"
        }
      ],
      "stateMutability": "view",
      "type": "function"
    },
    {
      "inputs": [
        {
          "internalType": "address",
          "name": "",
          "type": "address"
        }
      ],
      "name": "_minted",
      "outputs": [
        {
          "internalType": "uint256",
          "name": "",
          "type": "uint256"
        }
      ],
      "stateMutability": "view",
      "type": "function"
    },
    {
      "inputs": [],
      "name": "_paramsAddress",
      "outputs": [
        {
          "internalType": "address",
          "name": "",
          "type": "address"
        }
      ],
      "stateMutability": "view",
      "type": "function"
    },
    {
      "inputs": [],
      "name": "_randomizerAddr",
      "outputs": [
        {
          "internalType": "address",
          "name": "",
          "type": "address"
        }
      ],
      "stateMutability": "view",
      "type": "function"
    },
    {
      "inputs": [],
      "name": "_script",
      "outputs": [
        {
          "internalType": "string",
          "name": "",
          "type": "string"
        }
      ],
      "stateMutability": "view",
      "type": "function"
    },
    {
      "inputs": [],
      "name": "_signerMint",
      "outputs": [
        {
          "internalType": "address",
          "name": "",
          "type": "address"
        }
      ],
      "stateMutability": "view",
      "type": "function"
    },
    {
      "inputs": [
        {
          "internalType": "address",
          "name": "to",
          "type": "address"
        },
        {
          "internalType": "uint256",
          "name": "tokenId",
          "type": "uint256"
        }
      ],
      "name": "approve",
      "outputs": [],
      "stateMutability": "nonpayable",
      "type": "function"
    },
    {
      "inputs": [
        {
          "internalType": "uint256",
          "name": "tokenId",
          "type": "uint256"
        }
      ],
      "name": "available",
      "outputs": [
        {
          "internalType": "bool",
          "name": "",
          "type": "bool"
        }
      ],
      "stateMutability": "view",
      "type": "function"
    },
    {
      "inputs": [
        {
          "internalType": "address",
          "name": "owner",
          "type": "address"
        }
      ],
      "name": "balanceOf",
      "outputs": [
        {
          "internalType": "uint256",
          "name": "",
          "type": "uint256"
        }
      ],
      "stateMutability": "view",
      "type": "function"
    },
    {
      "inputs": [
        {
          "internalType": "address",
          "name": "to",
          "type": "address"
        },
        {
          "internalType": "uint256",
          "name": "n",
          "type": "uint256"
        },
        {
          "internalType": "bytes",
          "name": "signatures",
          "type": "bytes"
        }
      ],
      "name": "batchMint",
      "outputs": [
        {
          "internalType": "uint256[]",
          "name": "",
          "type": "uint256[]"
        }
      ],
      "stateMutability": "payable",
      "type": "function"
    },
    {
      "inputs": [
        {
          "internalType": "uint256",
          "name": "tokenId",
          "type": "uint256"
        }
      ],
      "name": "biddable",
      "outputs": [
        {
          "internalType": "bool",
          "name": "",
          "type": "bool"
        }
      ],
      "stateMutability": "view",
      "type": "function"
    },
    {
      "inputs": [
        {
          "internalType": "address",
          "name": "newAdm",
          "type": "address"
        }
      ],
      "name": "changeAdmin",
      "outputs": [],
      "stateMutability": "nonpayable",
      "type": "function"
    },
    {
      "inputs": [
        {
          "internalType": "address",
          "name": "newBfs",
          "type": "address"
        }
      ],
      "name": "changeBfs",
      "outputs": [],
      "stateMutability": "nonpayable",
      "type": "function"
    },
    {
      "inputs": [
        {
          "internalType": "address",
          "name": "newBrc20",
          "type": "address"
        }
      ],
      "name": "changeBrc20Token",
      "outputs": [],
      "stateMutability": "nonpayable",
      "type": "function"
    },
    {
      "inputs": [
        {
          "internalType": "address",
          "name": "newAddr",
          "type": "address"
        }
      ],
      "name": "changeParamAddr",
      "outputs": [],
      "stateMutability": "nonpayable",
      "type": "function"
    },
    {
      "inputs": [
        {
          "internalType": "address",
          "name": "newAddr",
          "type": "address"
        }
      ],
      "name": "changeRandomizerAddr",
      "outputs": [],
      "stateMutability": "nonpayable",
      "type": "function"
    },
    {
      "inputs": [
        {
          "internalType": "string",
          "name": "newScript",
          "type": "string"
        }
      ],
      "name": "changeScript",
      "outputs": [],
      "stateMutability": "nonpayable",
      "type": "function"
    },
    {
      "inputs": [
        {
          "internalType": "address",
          "name": "newAdd",
          "type": "address"
        }
      ],
      "name": "changeSignerMint",
      "outputs": [],
      "stateMutability": "nonpayable",
      "type": "function"
    },
    {
      "inputs": [
        {
          "internalType": "uint256",
          "name": "tokenId",
          "type": "uint256"
        },
        {
          "internalType": "bytes32",
          "name": "auctionId",
          "type": "bytes32"
        }
      ],
      "name": "claimBid",
      "outputs": [],
      "stateMutability": "nonpayable",
      "type": "function"
    },
    {
      "inputs": [
        {
          "internalType": "uint256",
          "name": "tokenId",
          "type": "uint256"
        }
      ],
      "name": "createAuction",
      "outputs": [],
      "stateMutability": "nonpayable",
      "type": "function"
    },
    {
      "inputs": [
        {
          "internalType": "uint256",
          "name": "tokenId",
          "type": "uint256"
        },
        {
          "internalType": "uint256",
          "name": "amount",
          "type": "uint256"
        }
      ],
      "name": "createBid",
      "outputs": [],
      "stateMutability": "payable",
      "type": "function"
    },
    {
      "inputs": [
        {
          "internalType": "uint256",
          "name": "amount",
          "type": "uint256"
        }
      ],
      "name": "deposit",
      "outputs": [],
      "stateMutability": "payable",
      "type": "function"
    },
    {
      "inputs": [
        {
          "internalType": "uint256",
          "name": "tokenId",
          "type": "uint256"
        }
      ],
      "name": "getApproved",
      "outputs": [
        {
          "internalType": "address",
          "name": "",
          "type": "address"
        }
      ],
      "stateMutability": "view",
      "type": "function"
    },
    {
      "inputs": [
        {
          "internalType": "address",
          "name": "user",
          "type": "address"
        },
        {
          "internalType": "uint256",
          "name": "totalGM",
          "type": "uint256"
        }
      ],
      "name": "getMessageHash",
      "outputs": [
        {
          "internalType": "bytes32",
          "name": "",
          "type": "bytes32"
        }
      ],
      "stateMutability": "view",
      "type": "function"
    },
    {
      "inputs": [
        {
          "internalType": "string",
          "name": "name",
          "type": "string"
        },
        {
          "internalType": "string",
          "name": "symbol",
          "type": "string"
        },
        {
          "internalType": "address",
          "name": "admin",
          "type": "address"
        },
        {
          "internalType": "address",
          "name": "paramsAddress",
          "type": "address"
        },
        {
          "internalType": "address",
          "name": "randomizerAddr",
          "type": "address"
        },
        {
          "internalType": "address",
          "name": "gmToken",
          "type": "address"
        },
        {
          "internalType": "address",
          "name": "bfs",
          "type": "address"
        },
        {
          "internalType": "address",
          "name": "signerMint",
          "type": "address"
        }
      ],
      "name": "initialize",
      "outputs": [],
      "stateMutability": "nonpayable",
      "type": "function"
    },
    {
      "inputs": [
        {
          "internalType": "address",
          "name": "owner",
          "type": "address"
        },
        {
          "internalType": "address",
          "name": "operator",
          "type": "address"
        }
      ],
      "name": "isApprovedForAll",
      "outputs": [
        {
          "internalType": "bool",
          "name": "",
          "type": "bool"
        }
      ],
      "stateMutability": "view",
      "type": "function"
    },
    {
      "inputs": [
        {
          "internalType": "address",
          "name": "to",
          "type": "address"
        },
        {
          "internalType": "uint256",
          "name": "totalGM",
          "type": "uint256"
        },
        {
          "internalType": "bytes",
          "name": "signature",
          "type": "bytes"
        }
      ],
      "name": "mint",
      "outputs": [
        {
          "internalType": "uint256",
          "name": "tokenId",
          "type": "uint256"
        }
      ],
      "stateMutability": "payable",
      "type": "function"
    },
    {
      "inputs": [],
      "name": "name",
      "outputs": [
        {
          "internalType": "string",
          "name": "",
          "type": "string"
        }
      ],
      "stateMutability": "view",
      "type": "function"
    },
    {
      "inputs": [],
      "name": "owner",
      "outputs": [
        {
          "internalType": "address",
          "name": "",
          "type": "address"
        }
      ],
      "stateMutability": "view",
      "type": "function"
    },
    {
      "inputs": [
        {
          "internalType": "uint256",
          "name": "tokenId",
          "type": "uint256"
        }
      ],
      "name": "ownerOf",
      "outputs": [
        {
          "internalType": "address",
          "name": "",
          "type": "address"
        }
      ],
      "stateMutability": "view",
      "type": "function"
    },
    {
      "inputs": [],
      "name": "p5jsScript",
      "outputs": [
        {
          "internalType": "string",
          "name": "result",
          "type": "string"
        }
      ],
      "stateMutability": "view",
      "type": "function"
    },
    {
      "inputs": [],
      "name": "paused",
      "outputs": [
        {
          "internalType": "bool",
          "name": "",
          "type": "bool"
        }
      ],
      "stateMutability": "view",
      "type": "function"
    },
    {
      "inputs": [],
      "name": "renounceOwnership",
      "outputs": [],
      "stateMutability": "nonpayable",
      "type": "function"
    },
    {
      "inputs": [
        {
          "internalType": "uint256",
          "name": "projectId",
          "type": "uint256"
        },
        {
          "internalType": "uint256",
          "name": "_salePrice",
          "type": "uint256"
        }
      ],
      "name": "royaltyInfo",
      "outputs": [
        {
          "internalType": "address",
          "name": "receiver",
          "type": "address"
        },
        {
          "internalType": "uint256",
          "name": "royaltyAmount",
          "type": "uint256"
        }
      ],
      "stateMutability": "view",
      "type": "function"
    },
    {
      "inputs": [
        {
          "internalType": "address",
          "name": "from",
          "type": "address"
        },
        {
          "internalType": "address",
          "name": "to",
          "type": "address"
        },
        {
          "internalType": "uint256",
          "name": "tokenId",
          "type": "uint256"
        }
      ],
      "name": "safeTransferFrom",
      "outputs": [],
      "stateMutability": "nonpayable",
      "type": "function"
    },
    {
      "inputs": [
        {
          "internalType": "address",
          "name": "from",
          "type": "address"
        },
        {
          "internalType": "address",
          "name": "to",
          "type": "address"
        },
        {
          "internalType": "uint256",
          "name": "tokenId",
          "type": "uint256"
        },
        {
          "internalType": "bytes",
          "name": "data",
          "type": "bytes"
        }
      ],
      "name": "safeTransferFrom",
      "outputs": [],
      "stateMutability": "nonpayable",
      "type": "function"
    },
    {
      "inputs": [
        {
          "internalType": "address",
          "name": "operator",
          "type": "address"
        },
        {
          "internalType": "bool",
          "name": "approved",
          "type": "bool"
        }
      ],
      "name": "setApprovalForAll",
      "outputs": [],
      "stateMutability": "nonpayable",
      "type": "function"
    },
    {
      "inputs": [
        {
          "internalType": "uint256",
          "name": "tokenId",
          "type": "uint256"
        }
      ],
      "name": "settleAuction",
      "outputs": [],
      "stateMutability": "nonpayable",
      "type": "function"
    },
    {
      "inputs": [
        {
          "internalType": "bytes4",
          "name": "interfaceId",
          "type": "bytes4"
        }
      ],
      "name": "supportsInterface",
      "outputs": [
        {
          "internalType": "bool",
          "name": "",
          "type": "bool"
        }
      ],
      "stateMutability": "view",
      "type": "function"
    },
    {
      "inputs": [],
      "name": "symbol",
      "outputs": [
        {
          "internalType": "string",
          "name": "",
          "type": "string"
        }
      ],
      "stateMutability": "view",
      "type": "function"
    },
    {
      "inputs": [
        {
          "internalType": "bytes32",
          "name": "seed",
          "type": "bytes32"
        },
        {
          "internalType": "uint256",
          "name": "tokenId",
          "type": "uint256"
        }
      ],
      "name": "tokenHTML",
      "outputs": [
        {
          "internalType": "string",
          "name": "result",
          "type": "string"
        }
      ],
      "stateMutability": "view",
      "type": "function"
    },
    {
      "inputs": [
        {
          "internalType": "uint256",
          "name": "tokenId",
          "type": "uint256"
        }
      ],
      "name": "tokenIdToHash",
      "outputs": [
        {
          "internalType": "bytes32",
          "name": "",
          "type": "bytes32"
        }
      ],
      "stateMutability": "view",
      "type": "function"
    },
    {
      "inputs": [
        {
          "internalType": "uint256",
          "name": "tokenId",
          "type": "uint256"
        }
      ],
      "name": "tokenURI",
      "outputs": [
        {
          "internalType": "string",
          "name": "result",
          "type": "string"
        }
      ],
      "stateMutability": "view",
      "type": "function"
    },
    {
      "inputs": [
        {
          "internalType": "address",
          "name": "from",
          "type": "address"
        },
        {
          "internalType": "address",
          "name": "to",
          "type": "address"
        },
        {
          "internalType": "uint256",
          "name": "tokenId",
          "type": "uint256"
        }
      ],
      "name": "transferFrom",
      "outputs": [],
      "stateMutability": "nonpayable",
      "type": "function"
    },
    {
      "inputs": [
        {
          "internalType": "address",
          "name": "newOwner",
          "type": "address"
        }
      ],
      "name": "transferOwnership",
      "outputs": [],
      "stateMutability": "nonpayable",
      "type": "function"
    },
    {
      "inputs": [
        {
          "internalType": "bytes32",
          "name": "seed",
          "type": "bytes32"
        },
        {
          "internalType": "uint256",
          "name": "tokenId",
          "type": "uint256"
        }
      ],
      "name": "variableScript",
      "outputs": [
        {
          "internalType": "string",
          "name": "result",
          "type": "string"
        }
      ],
      "stateMutability": "view",
      "type": "function"
    },
    {
      "inputs": [],
      "name": "web3Script",
      "outputs": [
        {
          "internalType": "string",
          "name": "result",
          "type": "string"
        }
      ],
      "stateMutability": "view",
      "type": "function"
    },
    {
      "inputs": [
        {
          "internalType": "address",
          "name": "erc20Addr",
          "type": "address"
        }
      ],
      "name": "withdraw",
      "outputs": [],
      "stateMutability": "nonpayable",
      "type": "function"
    }
  ],
  "bytecode": "0x608060405234801561001057600080fd5b506165fd80620000216000396000f3fe6080604052600436106103765760003560e01c806374973a41116101d1578063adfc7dae11610102578063cc22e004116100a0578063f2fde38b1161006f578063f2fde38b14610bb6578063f3f83ddd14610bd6578063f50cbc8b14610bf6578063febfd6c314610c1657600080fd5b8063cc22e00414610aff578063d5563f3114610b2d578063e985e9c514610b4d578063eb29c23214610b9657600080fd5b8063b88d4fde116100dc578063b88d4fde14610a6a578063bd89684314610a85578063c5c1b8af14610aa6578063c87b56dd14610adf57600080fd5b8063adfc7dae14610a23578063b6b55f2514610a44578063b7751c7114610a5757600080fd5b806394f5a66e1161016f5780639a247cb3116101495780639a247cb31461094d5780639c6f35f9146109cd578063a0d41e11146109ee578063a22cb46514610a0357600080fd5b806394f5a66e146108f857806395d89b411461091857806396e494e81461092d57600080fd5b80638da5cb5b116101ab5780638da5cb5b146108865780638f283970146108a557806393c6cdc0146108c557806394d008ef146108e557600080fd5b806374973a411461082e5780637de77ecc146108435780638a0162491461087157600080fd5b806332e32326116102ab578063621a1f741161024957806366215eb41161022357806366215eb4146107b857806368a17bd8146107d957806370a08231146107f9578063715018a61461081957600080fd5b8063621a1f7414610758578063624de2a9146107785780636352211e1461079857600080fd5b8063512c91df11610285578063512c91df146106c157806351cff8d9146106e157806355cd6326146107015780635c975abb1461074057600080fd5b806332e3232614610660578063333489791461068057806342842e0e146106a157600080fd5b80631ca9741b116103185780632824d162116102f25780632824d162146105b35780632a55205a146105e15780632b7d13de146106205780632e9936111461064057600080fd5b80631ca9741b1461055357806322f4596f1461057357806323b872dd1461059857600080fd5b8063081812fc11610354578063081812fc1461040b578063095ea7b31461042b578063140f0e071461044d57806317dc6bf61461046d57600080fd5b806301bc45c91461037b57806301ffc9a7146103b957806306fdde03146103e9575b600080fd5b34801561038757600080fd5b5061015f5461039c906001600160a01b031681565b6040516001600160a01b0390911681526020015b60405180910390f35b3480156103c557600080fd5b506103d96103d436600461550b565b610c36565b60405190151581526020016103b0565b3480156103f557600080fd5b506103fe610c88565b6040516103b09190615580565b34801561041757600080fd5b5061039c610426366004615593565b610d1a565b34801561043757600080fd5b5061044b6104463660046155cc565b610d41565b005b34801561045957600080fd5b5061044b6104683660046156c5565b610e5c565b34801561047957600080fd5b506104ed610488366004615593565b61016d60205260009081526040902080546001820154600283015460038401546004850154600586015460068701546007880154600889015460099099015497986001600160a01b0397881698969795969495841694600160a01b90940460ff16938b565b604080519b8c526001600160a01b039a8b1660208d01528b019890985260608a019690965260808901949094529590911660a0870152151560c086015260e0850193909352610100840192909252610120830191909152610140820152610160016103b0565b34801561055f57600080fd5b5061044b61056e3660046156fa565b610ebc565b34801561057f57600080fd5b5061058a6101665481565b6040519081526020016103b0565b3480156105a457600080fd5b5061044b610376366004615717565b3480156105bf57600080fd5b5061058a6105ce3660046156fa565b6101706020526000908152604090205481565b3480156105ed57600080fd5b506106016105fc366004615758565b610f50565b604080516001600160a01b0390931683526020830191909152016103b0565b34801561062c57600080fd5b5061044b61063b3660046156fa565b610f81565b34801561064c57600080fd5b5061044b61065b366004615593565b611016565b34801561066c57600080fd5b506103fe61067b366004615758565b61104e565b34801561068c57600080fd5b506101655461039c906001600160a01b031681565b3480156106ad57600080fd5b5061044b6106bc366004615717565b611237565b3480156106cd57600080fd5b5061058a6106dc3660046155cc565b611252565b3480156106ed57600080fd5b5061044b6106fc3660046156fa565b6112b0565b34801561070d57600080fd5b5061058a61071c36600461577a565b61016f60209081526000938452604080852082529284528284209052825290205481565b34801561074c57600080fd5b5060975460ff166103d9565b34801561076457600080fd5b5061058a610773366004615593565b6114f0565b61078b6107863660046157b3565b6115be565b6040516103b0919061583c565b3480156107a457600080fd5b5061039c6107b3366004615593565b61168b565b3480156107c457600080fd5b506101615461039c906001600160a01b031681565b3480156107e557600080fd5b506103d96107f4366004615593565b6116a7565b34801561080557600080fd5b5061058a6108143660046156fa565b6116cf565b34801561082557600080fd5b5061044b611755565b34801561083a57600080fd5b506103fe611769565b34801561084f57600080fd5b5061058a61085e3660046156fa565b61016a6020526000908152604090205481565b34801561087d57600080fd5b506103fe6119c3565b34801561089257600080fd5b5061012d546001600160a01b031661039c565b3480156108b157600080fd5b5061044b6108c03660046156fa565b611a52565b3480156108d157600080fd5b5061044b6108e03660046156fa565b611ae7565b61058a6108f33660046157b3565b611b7c565b34801561090457600080fd5b5061044b610913366004615880565b611e89565b34801561092457600080fd5b506103fe6120af565b34801561093957600080fd5b506103d9610948366004615593565b6120be565b34801561095957600080fd5b506104ed610968366004615593565b61016e60205260009081526040902080546001820154600283015460038401546004850154600586015460068701546007880154600889015460099099015497986001600160a01b0397881698969795969495841694600160a01b90940460ff16938b565b3480156109d957600080fd5b506101645461039c906001600160a01b031681565b3480156109fa57600080fd5b506103fe6121aa565b348015610a0f57600080fd5b5061044b610a1e366004615960565b6123db565b348015610a2f57600080fd5b506101605461039c906001600160a01b031681565b61044b610a52366004615593565b6123e6565b61044b610a65366004615758565b61270b565b348015610a7657600080fd5b5061044b610376366004615999565b348015610a9157600080fd5b506101675461039c906001600160a01b031681565b348015610ab257600080fd5b5061058a610ac1366004615a19565b61016c60209081526000928352604080842090915290825290205481565b348015610aeb57600080fd5b506103fe610afa366004615593565b612bd3565b348015610b0b57600080fd5b5061058a610b1a366004615593565b6101696020526000908152604090205481565b348015610b3957600080fd5b5061044b610b48366004615593565b612e6c565b348015610b5957600080fd5b506103d9610b68366004615a19565b6001600160a01b039182166000908152606a6020908152604080832093909416825291909152205460ff1690565b348015610ba257600080fd5b506103fe610bb1366004615758565b612f13565b348015610bc257600080fd5b5061044b610bd13660046156fa565b612fe5565b348015610be257600080fd5b5061044b610bf13660046156fa565b61305b565b348015610c0257600080fd5b5061044b610c11366004615758565b6130f0565b348015610c2257600080fd5b5061044b610c313660046156fa565b613244565b60006001600160e01b031982166380ac58cd60e01b1480610c6757506001600160e01b03198216635b5e139f60e01b145b80610c8257506301ffc9a760e01b6001600160e01b03198316145b92915050565b606060658054610c9790615a47565b80601f0160208091040260200160405190810160405280929190818152602001828054610cc390615a47565b8015610d105780601f10610ce557610100808354040283529160200191610d10565b820191906000526020600020905b815481529060010190602001808311610cf357829003601f168201915b5050505050905090565b6000610d25826132d9565b506000908152606960205260409020546001600160a01b031690565b6000610d4c82613329565b9050806001600160a01b0316836001600160a01b03161415610dbf5760405162461bcd60e51b815260206004820152602160248201527f4552433732313a20617070726f76616c20746f2063757272656e74206f776e656044820152603960f91b60648201526084015b60405180910390fd5b336001600160a01b0382161480610ddb5750610ddb8133610b68565b610e4d5760405162461bcd60e51b815260206004820152603d60248201527f4552433732313a20617070726f76652063616c6c6572206973206e6f7420746f60448201527f6b656e206f776e6572206f7220617070726f76656420666f7220616c6c0000006064820152608401610db6565b610e578383613389565b505050565b61015f5460408051808201909152600381526231303160e81b6020820152906001600160a01b03163314610ea35760405162461bcd60e51b8152600401610db69190615580565b508051610eb89061016390602084019061545c565b5050565b61015f546001600160a01b031633148015610edf57506001600160a01b03811615155b6040518060400160405280600381526020016231303160e81b81525090610f195760405162461bcd60e51b8152600401610db69190615580565b50610161546001600160a01b03828116911614610f4d5761016180546001600160a01b0319166001600160a01b0383161790555b50565b61015f546001600160a01b03166000612710610f6e846101f4615a98565b610f789190615ab7565b90509250929050565b61015f546001600160a01b031633148015610fa457506001600160a01b03811615155b6040518060400160405280600381526020016231303160e81b81525090610fde5760405162461bcd60e51b8152600401610db69190615580565b50610165546001600160a01b03828116911614610f4d5761016580546001600160a01b0383166001600160a01b031990911617905550565b61101e613432565b6110448161102b8361168b565b6001600160a01b0316336001600160a01b03161461348c565b610f4d600160fb55565b6040805180820190915260128152711e39b1b934b83a1034b21e93bb30b939939f60711b602082015280611081846138cd565b604051602001611092929190615ad9565b60408051601f198184030181529190526101645490915081906110bd906001600160a01b0316613919565b6040516020016110ce929190615b2d565b60408051808303601f19018152908290526101605463bf40fac160e01b835260206004840152602160248401527f535741505f504f4f4c5f474d5f4554485f434f4e54524143545f4144445245536044840152605360f81b60648401529092506001600160a01b031690600090829063bf40fac190608401602060405180830381865afa158015611163573d6000803e3d6000fd5b505050506040513d601f19601f820116820180604052508101906111879190615b94565b90508261119382613919565b6040516020016111a4929190615bb1565b6040516020818303038152906040529250826111bf30613919565b6040516020016111d0929190615c29565b6040516020818303038152906040529250826111eb8561392f565b6040516020016111fc929190615c90565b60405160208183030381529060405292508260405160200161121e9190615ce8565b6040516020818303038152906040529250505092915050565b610e5783838360405180602001604052806000815250600080fd5b6101675461016454604080513060208083019190915246828401526001600160a01b03948516606083015295841660808201529290911660a083015260c0808301939093528051808303909301835260e09091019052805191012090565b6112b8613432565b61015f5481906001600160a01b03163314156113c8576001600160a01b038216600090815261017060205260409020546112f157600080fd5b6001600160a01b03828116600090815261017060205260409081902054905163a9059cbb60e01b815233600482015260248101919091529082169063a9059cbb906044016020604051808303816000875af1158015611354573d6000803e3d6000fd5b505050506040513d601f19601f820116820180604052508101906113789190615d15565b6113a95760405162461bcd60e51b8152602060048201526002602482015261573160f01b6044820152606401610db6565b6001600160a01b038216600090815261017060205260408120556114e5565b33600090815261016c602090815260408083206001600160a01b03861684529091529020546113f657600080fd5b33600081815261016c602090815260408083206001600160a01b0387811685529252918290205491516323b872dd60e01b8152306004820152602481019390935260448301919091528216906323b872dd906064016020604051808303816000875af115801561146a573d6000803e3d6000fd5b505050506040513d601f19601f8201168201806040525081019061148e9190615d15565b6114bf5760405162461bcd60e51b81526020600482015260026024820152612b9960f11b6044820152606401610db6565b33600090815261016c602090815260408083206001600160a01b03861684529091528120555b50610f4d600160fb55565b60006114fb826139cc565b6040518060400160405280600381526020016232303960e81b815250906115355760405162461bcd60e51b8152600401610db69190615580565b5060008281526101686020526040902054600160a01b900460a01b6001600160a01b03191661156657506000919050565b600082815261016860209081526040918290205491516115a192600160a01b900460a01b91016001600160a01b031991909116815260200190565b604051602081830303815290604052805190602001209050919050565b606060008467ffffffffffffffff8111156115db576115db6155f8565b604051908082528060200260200182016040528015611604578160200160208202803683370190505b5061015f549091506001600160a01b0316331461162057600080fd5b60005b8581101561167f57600061163a8860008888611b7c565b90508083838151811061164f5761164f615d32565b60200260200101818152505062030d405a101561166c575061167f565b508061167781615d48565b915050611623565b5090505b949350505050565b600090815261016860205260409020546001600160a01b031690565b60006116b16139ea565b6116ba33613a95565b106116c757506001919050565b506000919050565b60006001600160a01b0382166117395760405162461bcd60e51b815260206004820152602960248201527f4552433732313a2061646472657373207a65726f206973206e6f7420612076616044820152683634b21037bbb732b960b91b6064820152608401610db6565b506001600160a01b031660009081526068602052604090205490565b61175d613b05565b6117676000613b60565b565b60606040518060600160405280603781526020016165916037913961016554604080518082018252600d81526c70356a7340312e352e302e6a7360981b602082015261016054915163bf40fac160e01b81529394506001600160a01b039283169390929190911690600090829063bf40fac19061180c906004016020808252600f908201526e29a1a924a82a2fa82927ab24a222a960891b604082015260600190565b602060405180830381865afa158015611829573d6000803e3d6000fd5b505050506040513d601f19601f8201168201806040525081019061184d9190615b94565b90506000846001600160a01b031663ba67e64183866040518363ffffffff1660e01b815260040161187f929190615d63565b602060405180830381865afa15801561189c573d6000803e3d6000fd5b505050506040513d601f19601f820116820180604052508101906118c09190615d87565b90506118cd600182615da0565b905060005b818110156119985761015f5460405163283959d960e21b815260009182916001600160a01b038a81169263a0e567649261191692909116908b908890600401615db8565b600060405180830381865afa158015611933573d6000803e3d6000fd5b505050506040513d6000823e601f3d908101601f1916820160405261195b9190810190615e1c565b915091508882604051602001611972929190615e77565b60405160208183030381529060405298505050808061199090615d48565b9150506118d2565b50856040516020016119aa9190615ce8565b6040516020818303038152906040529550505050505090565b61016380546119d190615a47565b80601f01602080910402602001604051908101604052809291908181526020018280546119fd90615a47565b8015611a4a5780601f10611a1f57610100808354040283529160200191611a4a565b820191906000526020600020905b815481529060010190602001808311611a2d57829003601f168201915b505050505081565b61015f546001600160a01b031633148015611a7557506001600160a01b03811615155b6040518060400160405280600381526020016231303160e81b81525090611aaf5760405162461bcd60e51b8152600401610db69190615580565b5061015f546001600160a01b03828116911614610f4d5761015f80546001600160a01b0383166001600160a01b031990911617905550565b61015f546001600160a01b031633148015611b0a57506001600160a01b03811615155b6040518060400160405280600381526020016231303160e81b81525090611b445760405162461bcd60e51b8152600401610db69190615580565b50610164546001600160a01b03828116911614610f4d5761016480546001600160a01b0383166001600160a01b031990911617905550565b6000611b86613432565b6101665461016254106040518060400160405280600381526020016232303360e81b81525090611bc95760405162461bcd60e51b8152600401610db69190615580565b5061015f546001600160a01b03163314611d0957336001600160a01b03861614611c1d5760405162461bcd60e51b815260206004820152600560248201526447505f495560d81b6044820152606401610db6565b611c26856116cf565b15611c595760405162461bcd60e51b8152602060048201526003602482015262312d3160e81b6044820152606401610db6565b6001600160a01b038516600090815261016a602052604090205415611ca45760405162461bcd60e51b81526020600482015260016024820152604d60f81b6044820152606401610db6565b611ce5858585858080601f016020809104026020016040519081016040528093929190818152602001838380828437600092019190915250613bb392505050565b50506001600160a01b038516600090815261016a6020526040902060019055611dc4565b61015f546001600160a01b03868116911614611dc457611d28856116cf565b15611d5b5760405162461bcd60e51b8152602060048201526003602482015262312d3160e81b6044820152606401610db6565b6001600160a01b038516600090815261016a602052604090205415611da65760405162461bcd60e51b81526020600482015260016024820152604d60f81b6044820152606401610db6565b6001600160a01b038516600090815261016a60205260409020600190555b6101628054906000611dd583615d48565b9190505550610162549050611dea8582613c2c565b61016154604051631da00d8560e01b8152600481018390526001600160a01b03909116906000908290631da00d85906024016020604051808303816000875af1158015611e3b573d6000803e3d6000fd5b505050506040513d601f19601f82011682018060405250810190611e5f9190615d87565b9050611e6b8382613c46565b5050600081815261016960205260409020439055611683600160fb55565b600054610100900460ff1615808015611ea95750600054600160ff909116105b80611ec35750303b158015611ec3575060005460ff166001145b611f265760405162461bcd60e51b815260206004820152602e60248201527f496e697469616c697a61626c653a20636f6e747261637420697320616c72656160448201526d191e481a5b9a5d1a585b1a5e995960921b6064820152608401610db6565b6000805460ff191660011790558015611f49576000805461ff0019166101001790555b60408051808201909152600381526203130360ec1b60208201526001600160a01b038816611f8a5760405162461bcd60e51b8152600401610db69190615580565b5060408051808201909152600381526203130360ec1b60208201526001600160a01b038716611fcc5760405162461bcd60e51b8152600401610db69190615580565b5061016080546001600160a01b03199081166001600160a01b038981169190911790925561015f805482168a841617905561016180548216888416179055610164805482168784161790556103e8610166556101658054821686841617905561016780549091169184169190911790556120468989613d11565b61204e613d42565b612056613d71565b61205e613da0565b80156120a4576000805461ff0019169055604051600181527f7f26b83ff96e1f2b6a682f133852f6798a09c465da95921460cefb38474024989060200160405180910390a15b505050505050505050565b606060668054610c9790615a47565b60006120c9826139cc565b6120d557506000919050565b6120dd613dcf565b600083815261016960205260409020546120f79043615ea6565b1161210457506000919050565b61015f546001600160a01b031661211a8361168b565b6001600160a01b0316141561213157506000919050565b3061213b8361168b565b6001600160a01b0316141561217457600082815261016d6020526040902060050154600160a01b900460ff161561217457506001919050565b600061217e6139ea565b90508061219261218d8561168b565b613a95565b10156121a15750600192915050565b50600092915050565b60606040518060600160405280603781526020016165916037913961016554604080518082018252600f81526e776562336a7340312e322e372e6a7360881b602082015261016054915163bf40fac160e01b81529394506001600160a01b039283169390929190911690600090829063bf40fac19061224f906004016020808252600f908201526e29a1a924a82a2fa82927ab24a222a960891b604082015260600190565b602060405180830381865afa15801561226c573d6000803e3d6000fd5b505050506040513d601f19601f820116820180604052508101906122909190615b94565b90506000846001600160a01b031663ba67e64183866040518363ffffffff1660e01b81526004016122c2929190615d63565b602060405180830381865afa1580156122df573d6000803e3d6000fd5b505050506040513d601f19601f820116820180604052508101906123039190615d87565b9050612310600182615da0565b905060005b818110156119985761015f5460405163283959d960e21b815260009182916001600160a01b038a81169263a0e567649261235992909116908b908890600401615db8565b600060405180830381865afa158015612376573d6000803e3d6000fd5b505050506040513d6000823e601f3d908101601f1916820160405261239e9190810190615e1c565b9150915088826040516020016123b5929190615e77565b6040516020818303038152906040529850505080806123d390615d48565b915050612315565b610eb8338383613e71565b6123ee613432565b6101605460405163bf40fac160e01b815260206004820152601860248201527729a7aaa62fa0aaa1aa24a7a72fa2a92199182faa27a5a2a760411b60448201526000916001600160a01b03169063bf40fac190606401602060405180830381865afa158015612461573d6000803e3d6000fd5b505050506040513d601f19601f820116820180604052508101906124859190615b94565b90506001600160a01b0381166124a45750610164546001600160a01b03165b604051636eb1769f60e11b8152336004820152306024820152819083906001600160a01b0383169063dd62ed3e90604401602060405180830381865afa1580156124f2573d6000803e3d6000fd5b505050506040513d601f19601f820116820180604052508101906125169190615d87565b10156125645760405162461bcd60e51b815260206004820152601c60248201527f6e6f7420656e6f75676820616c6c6f7720657263323020746f6b656e000000006044820152606401610db6565b6040516370a0823160e01b815233600482015283906001600160a01b038316906370a0823190602401602060405180830381865afa1580156125aa573d6000803e3d6000fd5b505050506040513d601f19601f820116820180604052508101906125ce9190615d87565b10156126155760405162461bcd60e51b81526020600482015260166024820152753737ba1032b737bab3b41032b9319918103a37b5b2b760511b6044820152606401610db6565b6040516323b872dd60e01b8152336004820152306024820152604481018490526001600160a01b038216906323b872dd906064016020604051808303816000875af1158015612668573d6000803e3d6000fd5b505050506040513d601f19601f8201168201806040525081019061268c9190615d15565b6126d85760405162461bcd60e51b815260206004820152601d60248201527f63616e206e6f74206765742065726332302066726f6d206269646465720000006044820152606401610db6565b5033600090815261016c602090815260408083206001600160a01b0394909416835292905220819055610f4d600160fb55565b612713613432565b61271c826116a7565b6127515760405162461bcd60e51b8152600401610db69060208082526004908201526304e5f43360e41b604082015260600190565b61275a336116cf565b156127905760405162461bcd60e51b8152602060048201526006602482015265272fa1982f9960d11b6044820152606401610db6565b600082815261016d60205260409020600181015490546001600160a01b039091169083146127f55760405162461bcd60e51b81526020600482015260126024820152713737ba103ab8103337b91030bab1ba34b7b760711b6044820152606401610db6565b600083815261016d602052604090206004015443106128485760405162461bcd60e51b815260206004820152600f60248201526e105d58dd1a5bdb88195e1c1a5c9959608a1b6044820152606401610db6565b33600090815261016c6020908152604080832086845261016d8352818420600101546001600160a01b031684529091529020548211156128ca5760405162461bcd60e51b815260206004820152601e60248201527f6e6f7420656e6f7567682062616c616e636520657263323020746f6b656e00006044820152606401610db6565b600083815261016f6020908152604080832061016d83528184206009015484528252808320338452909152812054906129038285615da0565b600086815261016d60205260409020600701549091508110156129685760405162461bcd60e51b815260206004820152601f60248201527f4d7573742073656e64206174206c6561737420726573657276655072696365006044820152606401610db6565b600085815261016d60205260409020600881015460029091015460649161298e91615a98565b6129989190615ab7565b600086815261016d60205260409020600201546129b59190615da0565b811015612a2c576040805162461bcd60e51b81526020600482015260248101919091527f4d7573742073656e64206d6f7265207468616e206c617374206269642062792060448201527f6d696e426964496e6372656d656e7450657263656e7461676520616d6f756e746064820152608401610db6565b33600090815261016c6020908152604080832088845261016d8352818420600101546001600160a01b0316845290915281208054869290612a6e908490615ea6565b9091555050600085815261016f6020908152604080832061016d8084528285206009810154865291845282852033808752908552928520869055898552909252600282018490556005820180546001600160a01b03191690911790556006810154600490910154612ae0904390615ea6565b1090508015612b1a57600086815261016d6020526040902060060154612b069043615da0565b600087815261016d60205260409020600401555b600086815261016d602052604090819020805491517ffd09e259e5c48be16f7dd63468e19266c684a9f3dce3b31881dbc1f909fc0d7c91612b619133918a91879190615f53565b60405180910390a28015612bbf57600086815261016d60205260409081902080546004820154925190927f4c1666cb87ed4fd7706cb19b1e3160612601aca7235c307fe64a11bc8db0f41f92612bb692615f89565b60405180910390a25b50505050610eb8600160fb55565b50505050565b6060612bde826139cc565b6040518060400160405280600381526020016232303960e81b81525090612c185760405162461bcd60e51b8152600401610db69190615580565b5060405163188687dd60e21b815260048101839052600090309063621a1f7490602401602060405180830381865afa158015612c58573d6000803e3d6000fd5b505050506040513d601f19601f82011682018060405250810190612c7c9190615d87565b61016054604051637594e11960e11b815260048101839052602481018690529192506001600160a01b031690600090309063eb29c23290604401600060405180830381865afa158015612cd3573d6000803e3d6000fd5b505050506040513d6000823e601f3d908101601f19168201604052612cfb9190810190615f9e565b9050612d2581604051602001612d119190615fe7565b604051602081830303815290604052613f40565b604051602001612d359190616003565b6040516020818303038152906040529050600081604051602001612d599190616041565b60408051601f198184030181528282018252600e83526d109054d157d5549257d51490525560921b6020840152905163349f642f60e11b81529092506000916001600160a01b0386169163693ec85e91612db591600401615580565b600060405180830381865afa158015612dd2573d6000803e3d6000fd5b505050506040513d6000823e601f3d908101601f19168201604052612dfa9190810190615f9e565b905080612e0630613919565b612e0f8961392f565b612e18886138cd565b604051602001612e2b9493929190616088565b6040516020818303038152906040529050808282604051602001612e519392919061610a565b60405160208183030381529060405295505050505050919050565b612e74613432565b612e7d816120be565b612eb25760405162461bcd60e51b8152600401610db69060208082526004908201526304e5f43360e41b604082015260600190565b612eba613dcf565b60008281526101696020526040902054612ed49043615ea6565b11612f0a5760405162461bcd60e51b81526020600482015260066024820152654e5f43305f3360d01b6044820152606401610db6565b611044816140a6565b60408051808201909152600c81526b1e343a36b61f1e3432b0b21f60a11b602082015280612f3f611769565b604051602001612f50929190615e77565b604051602081830303815290604052905080612f6a6121aa565b604051602001612f7b929190615e77565b604051602081830303815290604052905080612f97848461104e565b604051602001612fa8929190615e77565b604051602081830303815290604052905080610163604051602001612fce9291906161e8565b604051602081830303815290604052905092915050565b612fed613b05565b6001600160a01b0381166130525760405162461bcd60e51b815260206004820152602660248201527f4f776e61626c653a206e6577206f776e657220697320746865207a65726f206160448201526564647265737360d01b6064820152608401610db6565b610f4d81613b60565b61015f546001600160a01b03163314801561307e57506001600160a01b03811615155b6040518060400160405280600381526020016231303160e81b815250906130b85760405162461bcd60e51b8152600401610db69190615580565b50610167546001600160a01b03828116911614610f4d5761016780546001600160a01b0383166001600160a01b031990911617905550565b6130f8613432565b600081815261016e6020526040902060050154600160a01b900460ff1661311e57600080fd5b600081815261016e60205260409020600501546001600160a01b031633141561314657600080fd5b600082815261016f60209081526040808320848452825280832033845290915290205461317257600080fd5b600082815261016f60209081526040808320848452825280832033845282528083205461016c835281842085855261016e8452828520600101546001600160a01b0316855290925282208054919290916131cd908490615da0565b9091555050600082815261016f6020908152604080832084845282528083203380855290835281842084905581519081529182019290925290810182905282907f3efeb5ca9b10c05ba2df4bcac38445e4a4e8a996887f004e5036d254c14a98649060600160405180910390a2610eb8600160fb55565b61015f546001600160a01b03163314801561326757506001600160a01b03811615155b6040518060400160405280600381526020016231303160e81b815250906132a15760405162461bcd60e51b8152600401610db69190615580565b50610160546001600160a01b03828116911614610f4d5761016080546001600160a01b0383166001600160a01b031990911617905550565b6132e2816139cc565b610f4d5760405162461bcd60e51b8152602060048201526018602482015277115490cdcc8c4e881a5b9d985b1a59081d1bdad95b88125160421b6044820152606401610db6565b6000818152606760205260408120546001600160a01b031680610c825760405162461bcd60e51b8152602060048201526018602482015277115490cdcc8c4e881a5b9d985b1a59081d1bdad95b88125160421b6044820152606401610db6565b600081815260696020526040902080546001600160a01b0319166001600160a01b03841690811790915581906133be82613329565b6001600160a01b03167f8c5be1e5ebec7d5bd14f71427d1e84f3dd0314c0f7b2291e5b200ac8c7c3b92560405160405180910390a45050565b61340283838361475a565b60009081526101686020526040902080546001600160a01b0319166001600160a01b039290921691909117905550565b600260fb5414156134855760405162461bcd60e51b815260206004820152601f60248201527f5265656e7472616e637947756172643a207265656e7472616e742063616c6c006044820152606401610db6565b600260fb55565b600082815261016d60205260409020600301546134e25760405162461bcd60e51b815260206004820152601460248201527320bab1ba34b7b7103430b9b713ba103132b3bab760611b6044820152606401610db6565b600082815261016d6020526040902060050154600160a01b900460ff161561354c5760405162461bcd60e51b815260206004820181905260248201527f41756374696f6e2068617320616c7265616479206265656e20736574746c65646044820152606401610db6565b600082815261016d60205260409020600401544310156135ae5760405162461bcd60e51b815260206004820152601860248201527f41756374696f6e206861736e277420636f6d706c6574656400000000000000006044820152606401610db6565b600082815261016d602081815260408084206003810185905560058082018054600160a01b60ff60a01b1991821681178355600990940154885261016e865293872090910180549093169091179091559285905252546001600160a01b03161561366857600082815261016d6020526040902060050154613637906001600160a01b03166116cf565b61366857600082815261016d60205260409020600581015490546136689130916001600160a01b03909116906133f7565b600082815261016d602052604090206002015415613862576101605460405163bf40fac160e01b815260206004820152601c60248201527f534f554c5f41554354494f4e5f474d5f44414f5f54726561737572790000000060448201526000916001600160a01b03169063bf40fac190606401602060405180830381865afa1580156136f8573d6000803e3d6000fd5b505050506040513d601f19601f8201168201806040525081019061371c9190615b94565b90506001600160a01b03811661373157600080fd5b600083815261016d602052604081206002015461271090613754906103e8615a98565b61375e9190615ab7565b600085815261016d6020526040902060018101546002909101549192506001600160a01b03169063a9059cbb908490613798908590615ea6565b6040516001600160e01b031960e085901b1681526001600160a01b03909216600483015260248201526044016020604051808303816000875af11580156137e3573d6000803e3d6000fd5b505050506040513d601f19601f820116820180604052508101906138079190615d15565b50600084815261016d602090815260408083206001810180546001600160a01b03908116865261017085528386209690965588855261016f845282852060099092015485529083528184209054909416835292905290812055505b600082815261016d602052604090819020805460058201546002830154935191937f727cff623966c8adc61ac68940e8c898c04ff7ced5d69d9735d51f0589daf532936138ba936001600160a01b0390931692616299565b60405180910390a25050565b600160fb55565b60606138d8826148cb565b6138e5608084901b6148cb565b60405161060f60f31b6020820152602281019290925260428201526062016040516020818303038152906040529050919050565b6060610c826001600160a01b0383166014614a7d565b6060600061393c83614c20565b600101905060008167ffffffffffffffff81111561395c5761395c6155f8565b6040519080825280601f01601f191660200182016040528015613986576020820181803683370190505b5090508181016020015b600019016f181899199a1a9b1b9c1cb0b131b232b360811b600a86061a8153600a85049450846139bf576139c4565b613990565b509392505050565b600090815261016860205260409020546001600160a01b0316151590565b61016054604051636d12dce160e01b815260206004820152601160248201527014d3d55317d1d357d512149154d213d311607a1b604482015260009182916001600160a01b0390911690636d12dce190606401602060405180830381865afa158015613a5a573d6000803e3d6000fd5b505050506040513d601f19601f82011682018060405250810190613a7e9190615d87565b905080613a905750670de0b6b3a76400005b919050565b610164546040516370a0823160e01b81526001600160a01b03838116600483015260009216906370a0823190602401602060405180830381865afa158015613ae1573d6000803e3d6000fd5b505050506040513d601f19601f82011682018060405250810190610c829190615d87565b61012d546001600160a01b031633146117675760405162461bcd60e51b815260206004820181905260248201527f4f776e61626c653a2063616c6c6572206973206e6f7420746865206f776e65726044820152606401610db6565b61012d80546001600160a01b038381166001600160a01b0319831681179093556040519116919082907f8be0079c531659141344cd1fd0a4f28419497f9722a3daafe3b4186f6b6457e090600090a35050565b6000806000613bc28686611252565b90506000613bd8613bd283614cf8565b86614d33565b610167549091506001600160a01b03808316911614613c215760405162461bcd60e51b815260206004820152600560248201526447505f4e4160d81b6044820152606401610db6565b969095509350505050565b610eb8828260405180602001604052806000815250614d4f565b60008281526101686020908152604091829020548251808401909352600383526219181b60e91b91830191909152600160a01b900460a01b6001600160a01b03191615613ca65760405162461bcd60e51b8152600401610db69190615580565b5060408051808201909152600381526232303760e81b602082015281613cdf5760405162461bcd60e51b8152600401610db69190615580565b5060009182526101686020526040909120805460a09290921c600160a01b026001600160a01b03909216919091179055565b600054610100900460ff16613d385760405162461bcd60e51b8152600401610db6906162be565b610eb88282614d82565b600054610100900460ff16613d695760405162461bcd60e51b8152600401610db6906162be565b611767614dd0565b600054610100900460ff16613d985760405162461bcd60e51b8152600401610db6906162be565b611767614df7565b600054610100900460ff16613dc75760405162461bcd60e51b8152600401610db6906162be565b611767614e2a565b61016054604051636d12dce160e01b815260206004820152600f60248201526e534f554c5f474d5f5245534552564560881b604482015260009182916001600160a01b0390911690636d12dce190606401602060405180830381865afa158015613e3d573d6000803e3d6000fd5b505050506040513d601f19601f82011682018060405250810190613e619190615d87565b905080613a9057506103f0919050565b816001600160a01b0316836001600160a01b03161415613ed35760405162461bcd60e51b815260206004820152601960248201527f4552433732313a20617070726f766520746f2063616c6c6572000000000000006044820152606401610db6565b6001600160a01b038381166000818152606a6020908152604080832094871680845294825291829020805460ff191686151590811790915591519182527f17307eab39ab6107e8899845ad3d59bd9653f200f220920489ca2b5937696c31910160405180910390a3505050565b6060815160001415613f6057505060408051602081019091526000815290565b60006040518060600160405280604081526020016165516040913990506000600384516002613f8f9190615da0565b613f999190615ab7565b613fa4906004615a98565b90506000613fb3826020615da0565b67ffffffffffffffff811115613fcb57613fcb6155f8565b6040519080825280601f01601f191660200182016040528015613ff5576020820181803683370190505b509050818152600183018586518101602084015b81831015614061576003830192508251603f8160121c168501518253600182019150603f81600c1c168501518253600182019150603f8160061c168501518253600182019150603f8116850151825350600101614009565b60038951066001811461407b576002811461408c57614098565b613d3d60f01b600119830152614098565b603d60f81b6000198301525b509398975050505050505050565b6140af816139cc565b6140b857600080fd5b600081815261016d6020526040902060050154600160a01b900460ff16806140ed5750600081815261016d6020526040902054155b61415f5760405162461bcd60e51b815260206004820152603860248201527f41756374696f6e2068617320616c7265616479206265656e20736574746c656460448201527f206f72203173742041756374696f6e206f6620746f6b656e00000000000000006064820152608401610db6565b43600061416a613dcf565b6141749083615da0565b610160805460408051928301815260006020808501829052848301829052606085018290526080850182905260a0850182905260c0850182905260e0850182905261010085018290526101208501829052610140850191909152878452905163bf40fac160e01b81526004810191909152601860248201527729a7aaa62fa0aaa1aa24a7a72fa2a92199182faa27a5a2a760411b60448201529293506001600160a01b031691829063bf40fac190606401602060405180830381865afa158015614242573d6000803e3d6000fd5b505050506040513d601f19601f820116820180604052508101906142669190615b94565b6001600160a01b03166020820181905261428d57610164546001600160a01b031660208201525b60006040828101829052606083018690526080830185905260a0830182905260c083019190915251636d12dce160e01b815260206004820152601860248201527f534f554c5f41554354494f4e5f54494d455f425546464552000000000000000060448201526001600160a01b03831690636d12dce190606401602060405180830381865afa158015614324573d6000803e3d6000fd5b505050506040513d601f19601f820116820180604052508101906143489190615d87565b60e0820152604051636d12dce160e01b815260206004820152601a60248201527f534f554c5f41554354494f4e5f524553455256455f505249434500000000000060448201526001600160a01b03831690636d12dce190606401602060405180830381865afa1580156143bf573d6000803e3d6000fd5b505050506040513d601f19601f820116820180604052508101906143e39190615d87565b610100820152604051636d12dce160e01b815260206004820152602560248201527f534f554c5f41554354494f4e5f4d494e5f4249445f494e4352454153455f50456044820152641490d1539560da1b60648201526001600160a01b03831690636d12dce190608401602060405180830381865afa158015614469573d6000803e3d6000fd5b505050506040513d601f19601f8201168201806040525081019061448d9190615d87565b61012082015261016b80549060006144a483615d48565b91905055506144b561016b5461392f565b6144c2826060015161392f565b6144cf836080015161392f565b6144d88861392f565b6040516020016144eb949392919061635b565b60405160208183030381529060405280519060200120816101400181815250508061016d60008781526020019081526020016000206000820151816000015560208201518160010160006101000a8154816001600160a01b0302191690836001600160a01b0316021790555060408201518160020155606082015181600301556080820151816004015560a08201518160050160006101000a8154816001600160a01b0302191690836001600160a01b0316021790555060c08201518160050160146101000a81548160ff02191690831515021790555060e082015181600601556101008201518160070155610120820151816008015561014082015181600901559050508061016e600083610140015181526020019081526020016000206000820151816000015560208201518160010160006101000a8154816001600160a01b0302191690836001600160a01b0316021790555060408201518160020155606082015181600301556080820151816004015560a08201518160050160006101000a8154816001600160a01b0302191690836001600160a01b0316021790555060c08201518160050160146101000a81548160ff02191690831515021790555060e08201518160060155610100820151816007015561012082015181600801556101408201518160090155905050306001600160a01b03166146ed8661168b565b6001600160a01b03161461470e5761470e6147078661168b565b30876133f7565b847fb404e07dbfe9071da655c32567071b2ee4e88867784a1b39f01a8457787e504f8585338561014001518660405161474b9594939291906163b2565b60405180910390a25050505050565b826001600160a01b031661476d82613329565b6001600160a01b0316146147935760405162461bcd60e51b8152600401610db690616484565b6001600160a01b0382166147f55760405162461bcd60e51b8152602060048201526024808201527f4552433732313a207472616e7366657220746f20746865207a65726f206164646044820152637265737360e01b6064820152608401610db6565b6148028383836001614f55565b826001600160a01b031661481582613329565b6001600160a01b03161461483b5760405162461bcd60e51b8152600401610db690616484565b600081815260696020908152604080832080546001600160a01b03199081169091556001600160a01b0387811680865260688552838620805460001901905590871680865283862080546001019055868652606790945282852080549092168417909155905184937fddf252ad1be2c89b69c2b068fc378daa952ba7f163c4a11628f55a4df523b3ef91a4505050565b7aff00000000000000ff00000000000000ff00000000000000ff00006bffffffff0000000000000000604083901c90811663ffffffff60c01b84161760201c63ffffffff60601b919091166001600160e01b031984161717601081901c9182167eff00000000000000ff00000000000000ff00000000000000ff000000000000821617600890811c7bff00000000000000ff00000000000000ff00000000000000ff000000939093167fff00000000000000ff00000000000000ff00000000000000ff000000000000009290921691909117919091179081901c7e0f000f000f000f000f000f000f000f000f000f000f000f000f000f000f000f167f0f000f000f000f000f000f000f000f000f000f000f000f000f000f000f000f00600492831c161790614a19827f0606060606060606060606060606060606060606060606060606060606060606615da0565b901c7f0f0f0f0f0f0f0f0f0f0f0f0f0f0f0f0f0f0f0f0f0f0f0f0f0f0f0f0f0f0f0f0f166007614a499190615a98565b614a73827f3030303030303030303030303030303030303030303030303030303030303030615da0565b610c829190615da0565b60606000614a8c836002615a98565b614a97906002615da0565b67ffffffffffffffff811115614aaf57614aaf6155f8565b6040519080825280601f01601f191660200182016040528015614ad9576020820181803683370190505b509050600360fc1b81600081518110614af457614af4615d32565b60200101906001600160f81b031916908160001a905350600f60fb1b81600181518110614b2357614b23615d32565b60200101906001600160f81b031916908160001a9053506000614b47846002615a98565b614b52906001615da0565b90505b6001811115614bca576f181899199a1a9b1b9c1cb0b131b232b360811b85600f1660108110614b8657614b86615d32565b1a60f81b828281518110614b9c57614b9c615d32565b60200101906001600160f81b031916908160001a90535060049490941c93614bc3816164c9565b9050614b55565b508315614c195760405162461bcd60e51b815260206004820181905260248201527f537472696e67733a20686578206c656e67746820696e73756666696369656e746044820152606401610db6565b9392505050565b60008072184f03e93ff9f4daa797ed6e38ed64bf6a1f0160401b8310614c5f5772184f03e93ff9f4daa797ed6e38ed64bf6a1f0160401b830492506040015b6d04ee2d6d415b85acef81000000008310614c8b576d04ee2d6d415b85acef8100000000830492506020015b662386f26fc100008310614ca957662386f26fc10000830492506010015b6305f5e1008310614cc1576305f5e100830492506008015b6127108310614cd557612710830492506004015b60648310614ce7576064830492506002015b600a8310610c825760010192915050565b6040517f19457468657265756d205369676e6564204d6573736167653a0a3332000000006020820152603c8101829052600090605c016115a1565b6000806000614d428585614fc8565b915091506139c48161500e565b614d59838361515c565b614d666000848484614e5a565b610e575760405162461bcd60e51b8152600401610db690616309565b600054610100900460ff16614da95760405162461bcd60e51b8152600401610db6906162be565b8151614dbc90606590602085019061545c565b508051610e5790606690602084019061545c565b600054610100900460ff166138c65760405162461bcd60e51b8152600401610db6906162be565b600054610100900460ff16614e1e5760405162461bcd60e51b8152600401610db6906162be565b6097805460ff19169055565b600054610100900460ff16614e515760405162461bcd60e51b8152600401610db6906162be565b61176733613b60565b60006001600160a01b0384163b15614f4d57604051630a85bd0160e11b81526001600160a01b0385169063150b7a0290614e9e9033908990889088906004016164e0565b6020604051808303816000875af1925050508015614ed9575060408051601f3d908101601f19168201909252614ed69181019061651d565b60015b614f33573d808015614f07576040519150601f19603f3d011682016040523d82523d6000602084013e614f0c565b606091505b508051614f2b5760405162461bcd60e51b8152600401610db690616309565b805181602001fd5b6001600160e01b031916630a85bd0160e11b149050611683565b506001611683565b614f6184848484615195565b60975460ff1615612bcd5760405162461bcd60e51b815260206004820152602b60248201527f4552433732315061757361626c653a20746f6b656e207472616e73666572207760448201526a1a1a5b19481c185d5cd95960aa1b6064820152608401610db6565b600080825160411415614fff5760208301516040840151606085015160001a614ff38782858561521d565b94509450505050615007565b506000905060025b9250929050565b60008160048111156150225761502261653a565b141561502b5750565b600181600481111561503f5761503f61653a565b141561508d5760405162461bcd60e51b815260206004820152601860248201527f45434453413a20696e76616c6964207369676e617475726500000000000000006044820152606401610db6565b60028160048111156150a1576150a161653a565b14156150ef5760405162461bcd60e51b815260206004820152601f60248201527f45434453413a20696e76616c6964207369676e6174757265206c656e677468006044820152606401610db6565b60038160048111156151035761510361653a565b1415610f4d5760405162461bcd60e51b815260206004820152602260248201527f45434453413a20696e76616c6964207369676e6174757265202773272076616c604482015261756560f01b6064820152608401610db6565b61516682826152e1565b60009081526101686020526040902080546001600160a01b0319166001600160a01b0392909216919091179055565b6001811115612bcd576001600160a01b038416156151db576001600160a01b038416600090815260686020526040812080548392906151d5908490615ea6565b90915550505b6001600160a01b03831615612bcd576001600160a01b03831660009081526068602052604081208054839290615212908490615da0565b909155505050505050565b6000807f7fffffffffffffffffffffffffffffff5d576e7357a4501ddfe92f46681b20a083111561525457506000905060036152d8565b6040805160008082526020820180845289905260ff881692820192909252606081018690526080810185905260019060a0016020604051602081039080840390855afa1580156152a8573d6000803e3d6000fd5b5050604051601f1901519150506001600160a01b0381166152d1576000600192509250506152d8565b9150600090505b94509492505050565b6001600160a01b0382166153375760405162461bcd60e51b815260206004820181905260248201527f4552433732313a206d696e7420746f20746865207a65726f20616464726573736044820152606401610db6565b615340816139cc565b1561538d5760405162461bcd60e51b815260206004820152601c60248201527f4552433732313a20746f6b656e20616c7265616479206d696e746564000000006044820152606401610db6565b61539b600083836001614f55565b6153a4816139cc565b156153f15760405162461bcd60e51b815260206004820152601c60248201527f4552433732313a20746f6b656e20616c7265616479206d696e746564000000006044820152606401610db6565b6001600160a01b038216600081815260686020908152604080832080546001019055848352606790915280822080546001600160a01b0319168417905551839291907fddf252ad1be2c89b69c2b068fc378daa952ba7f163c4a11628f55a4df523b3ef908290a45050565b82805461546890615a47565b90600052602060002090601f01602090048101928261548a57600085556154d0565b82601f106154a357805160ff19168380011785556154d0565b828001600101855582156154d0579182015b828111156154d05782518255916020019190600101906154b5565b506154dc9291506154e0565b5090565b5b808211156154dc57600081556001016154e1565b6001600160e01b031981168114610f4d57600080fd5b60006020828403121561551d57600080fd5b8135614c19816154f5565b60005b8381101561554357818101518382015260200161552b565b83811115612bcd5750506000910152565b6000815180845261556c816020860160208601615528565b601f01601f19169290920160200192915050565b602081526000614c196020830184615554565b6000602082840312156155a557600080fd5b5035919050565b6001600160a01b0381168114610f4d57600080fd5b8035613a90816155ac565b600080604083850312156155df57600080fd5b82356155ea816155ac565b946020939093013593505050565b634e487b7160e01b600052604160045260246000fd5b604051601f8201601f1916810167ffffffffffffffff81118282101715615637576156376155f8565b604052919050565b600067ffffffffffffffff821115615659576156596155f8565b50601f01601f191660200190565b600061567a6156758461563f565b61560e565b905082815283838301111561568e57600080fd5b828260208301376000602084830101529392505050565b600082601f8301126156b657600080fd5b614c1983833560208501615667565b6000602082840312156156d757600080fd5b813567ffffffffffffffff8111156156ee57600080fd5b611683848285016156a5565b60006020828403121561570c57600080fd5b8135614c19816155ac565b60008060006060848603121561572c57600080fd5b8335615737816155ac565b92506020840135615747816155ac565b929592945050506040919091013590565b6000806040838503121561576b57600080fd5b50508035926020909101359150565b60008060006060848603121561578f57600080fd5b833592506020840135915060408401356157a8816155ac565b809150509250925092565b600080600080606085870312156157c957600080fd5b84356157d4816155ac565b935060208501359250604085013567ffffffffffffffff808211156157f857600080fd5b818701915087601f83011261580c57600080fd5b81358181111561581b57600080fd5b88602082850101111561582d57600080fd5b95989497505060200194505050565b6020808252825182820181905260009190848201906040850190845b8181101561587457835183529284019291840191600101615858565b50909695505050505050565b600080600080600080600080610100898b03121561589d57600080fd5b883567ffffffffffffffff808211156158b557600080fd5b6158c18c838d016156a5565b995060208b01359150808211156158d757600080fd5b506158e48b828c016156a5565b97505060408901356158f5816155ac565b95506060890135615905816155ac565b94506080890135615915816155ac565b935060a0890135615925816155ac565b925060c0890135615935816155ac565b915061594360e08a016155c1565b90509295985092959890939650565b8015158114610f4d57600080fd5b6000806040838503121561597357600080fd5b823561597e816155ac565b9150602083013561598e81615952565b809150509250929050565b600080600080608085870312156159af57600080fd5b84356159ba816155ac565b935060208501356159ca816155ac565b925060408501359150606085013567ffffffffffffffff8111156159ed57600080fd5b8501601f810187136159fe57600080fd5b615a0d87823560208401615667565b91505092959194509250565b60008060408385031215615a2c57600080fd5b8235615a37816155ac565b9150602083013561598e816155ac565b600181811c90821680615a5b57607f821691505b60208210811415615a7c57634e487b7160e01b600052602260045260246000fd5b50919050565b634e487b7160e01b600052601160045260246000fd5b6000816000190483118215151615615ab257615ab2615a82565b500290565b600082615ad457634e487b7160e01b600052601260045260246000fd5b500490565b60008351615aeb818460208801615528565b696c657420736565643d2760b01b9083019081528351615b1281600a840160208801615528565b61273b60f01b600a9290910191820152600c01949350505050565b60008351615b3f818460208801615528565b7f6c657420474d5f434f4e54524143545f414444524553533d27000000000000009083019081528351615b79816019840160208801615528565b61273b60f01b60199290910191820152601b01949350505050565b600060208284031215615ba657600080fd5b8151614c19816155ac565b60008351615bc3818460208801615528565b80830190507f6c657420535741505f504f4f4c5f474d5f4554485f434f4e54524143545f414481526644524553533d2760c81b60208201528351615c0e816027840160208801615528565b61273b60f01b60279290910191820152602901949350505050565b60008351615c3b818460208801615528565b7f6c657420736f6c617269734e6674436f6e7472616374416464726573733d27009083019081528351615c7581601f840160208801615528565b61273b60f01b601f9290910191820152602101949350505050565b60008351615ca2818460208801615528565b6d6c657420544f4b454e5f49443d2760901b9083019081528351615ccd81600e840160208801615528565b61273b60f01b600e9290910191820152601001949350505050565b60008251615cfa818460208701615528565b681e17b9b1b934b83a1f60b91b920191825250600901919050565b600060208284031215615d2757600080fd5b8151614c1981615952565b634e487b7160e01b600052603260045260246000fd5b6000600019821415615d5c57615d5c615a82565b5060010190565b6001600160a01b038316815260406020820181905260009061168390830184615554565b600060208284031215615d9957600080fd5b5051919050565b60008219821115615db357615db3615a82565b500190565b6001600160a01b0384168152606060208201819052600090615ddc90830185615554565b9050826040830152949350505050565b6000615dfa6156758461563f565b9050828152838383011115615e0e57600080fd5b614c19836020830184615528565b60008060408385031215615e2f57600080fd5b825167ffffffffffffffff811115615e4657600080fd5b8301601f81018513615e5757600080fd5b615e6685825160208401615dec565b925050602083015190509250929050565b60008351615e89818460208801615528565b835190830190615e9d818360208801615528565b01949350505050565b600082821015615eb857615eb8615a82565b500390565b8054825260018101546001600160a01b03166001600160a01b03811660208401525060028101546040830152600381015460608301526004810154608083015260058101546001600160a01b03811660a0840152615f2560c0840160ff8360a01c1615159052565b50600681015460e0830152600781015461010083015260088101546101208301526009015461014090910152565b6001600160a01b03851681526020810184905282151560408201526101c08101615f806060830184615ebd565b95945050505050565b8281526101808101614c196020830184615ebd565b600060208284031215615fb057600080fd5b815167ffffffffffffffff811115615fc757600080fd5b8201601f81018413615fd857600080fd5b61168384825160208401615dec565b60008251615ff9818460208701615528565b9190910192915050565b7519185d184e9d195e1d0bda1d1b5b0ed8985cd94d8d0b60521b815260008251616034816016850160208701615528565b9190910160160192915050565b7216101130b734b6b0ba34b7b72fbab936111d1160691b81528151600090616070816013850160208701615528565b601160f91b6013939091019283015250601401919050565b6000855161609a818460208a01615528565b8083019050602f60f81b80825286516160ba816001850160208b01615528565b600192019182015284516160d5816002840160208901615528565b653f736565643d60d01b6002929091019182015283516160fc816008840160208801615528565b016008019695505050505050565b7f7b226e616d65223a22222c226465736372697074696f6e223a2022220000000081526b16101134b6b0b3b2911d101160a11b601c8201528351600090616158816028850160208901615528565b6e1331b0b83a3ab9329e9b181818181160891b6028918401918201528451616187816037840160208901615528565b7016101130ba3a3934b13aba32b9911d101160791b6037929091019182015283516161b9816048840160208801615528565b6a1331b0b83a3ab9329e981160a91b60489290910191820152607d60f81b605382015260540195945050505050565b6000835160206161fb8285838901615528565b845491840191600090600181811c908083168061621957607f831692505b85831081141561623757634e487b7160e01b85526022600452602485fd5b80801561624b576001811461625c57616289565b60ff19851688528388019550616289565b60008b81526020902060005b858110156162815781548a820152908401908801616268565b505083880195505b50939a9950505050505050505050565b6001600160a01b0384168152602081018390526101a081016116836040830184615ebd565b6020808252602b908201527f496e697469616c697a61626c653a20636f6e7472616374206973206e6f74206960408201526a6e697469616c697a696e6760a81b606082015260800190565b60208082526032908201527f4552433732313a207472616e7366657220746f206e6f6e20455243373231526560408201527131b2b4bb32b91034b6b83632b6b2b73a32b960711b606082015260800190565b6000855161636d818460208a01615528565b855190830190616381818360208a01615528565b8551910190616394818360208901615528565b84519101906163a7818360208801615528565b019695505050505050565b85815260208082018690526001600160a01b038516604083015260608201849052825160808301528201516101e08201906163f860a08401826001600160a01b03169052565b50604083015160c0830152606083015160e08301526080830151610100818185015260a08501519150610120616438818601846001600160a01b03169052565b60c0860151925061014061644f8187018515159052565b60e0870151610160870152918601516101808601528501516101a0850152909301516101c09092019190915295945050505050565b60208082526025908201527f4552433732313a207472616e736665722066726f6d20696e636f72726563742060408201526437bbb732b960d91b606082015260800190565b6000816164d8576164d8615a82565b506000190190565b6001600160a01b038581168252841660208201526040810183905260806060820181905260009061651390830184615554565b9695505050505050565b60006020828403121561652f57600080fd5b8151614c19816154f5565b634e487b7160e01b600052602160045260246000fdfe4142434445464748494a4b4c4d4e4f505152535455565758595a6162636465666768696a6b6c6d6e6f707172737475767778797a303132333435363738392b2f3c7363726970742073616e64626f783d27616c6c6f772d736372697074732720747970653d27746578742f6a617661736372697074273ea2646970667358221220b3938662d9c792bf51157a92d996aec079f15ccfbc74a818d8a225faf7443b5a64736f6c634300080c0033",
  "linkReferences": {},
  "deployedLinkReferences": {}
}